{
  "_format": "hh-sol-artifact-1",
  "contractName": "Hodl",
  "sourceName": "contracts/Hodl.sol",
  "abi": [
    {
      "inputs": [],
      "stateMutability": "nonpayable",
      "type": "constructor"
    },
    {
      "anonymous": false,
      "inputs": [
        {
          "indexed": false,
          "internalType": "uint256",
          "name": "amount",
          "type": "uint256"
        },
        {
          "indexed": false,
          "internalType": "uint256",
          "name": "time",
          "type": "uint256"
        }
      ],
      "name": "fundsDeposited",
      "type": "event"
    },
    {
      "anonymous": false,
      "inputs": [
        {
          "indexed": false,
          "internalType": "uint256",
          "name": "balance",
          "type": "uint256"
        },
        {
          "indexed": false,
          "internalType": "uint256",
          "name": "time",
          "type": "uint256"
        }
      ],
      "name": "fundsWithdrawn",
      "type": "event"
    },
    {
      "inputs": [],
      "name": "balance",
      "outputs": [
        {
          "internalType": "uint256",
          "name": "",
          "type": "uint256"
        }
      ],
      "stateMutability": "view",
      "type": "function"
    },
    {
      "inputs": [],
      "name": "deposit",
      "outputs": [],
      "stateMutability": "payable",
      "type": "function"
    },
    {
      "inputs": [],
      "name": "owner",
      "outputs": [
        {
          "internalType": "address",
          "name": "",
          "type": "address"
        }
      ],
      "stateMutability": "view",
      "type": "function"
    },
    {
      "inputs": [
        {
          "internalType": "uint256",
          "name": "time",
          "type": "uint256"
        }
      ],
      "name": "setTimeOfLock",
      "outputs": [],
      "stateMutability": "nonpayable",
      "type": "function"
    },
    {
      "inputs": [],
      "name": "timeOfUnlock",
      "outputs": [
        {
          "internalType": "uint256",
          "name": "",
          "type": "uint256"
        }
      ],
      "stateMutability": "view",
      "type": "function"
    },
    {
      "inputs": [],
      "name": "withdraw",
      "outputs": [],
      "stateMutability": "nonpayable",
      "type": "function"
    }
  ],
  "bytecode": "0x608060405234801561001057600080fd5b50336000806101000a81548173ffffffffffffffffffffffffffffffffffffffff021916908373ffffffffffffffffffffffffffffffffffffffff16021790555061055f806100606000396000f3fe6080604052600436106100555760003560e01c806335a1b11d1461005a5780633ccfd60b146100855780638b89714b1461009c5780638da5cb5b146100c5578063b69ef8a8146100f0578063d0e30db01461011b575b600080fd5b34801561006657600080fd5b5061006f610125565b60405161007c919061040d565b60405180910390f35b34801561009157600080fd5b5061009a61012b565b005b3480156100a857600080fd5b506100c360048036038101906100be91906103ab565b610236565b005b3480156100d157600080fd5b506100da6102b2565b6040516100e791906103f2565b60405180910390f35b3480156100fc57600080fd5b506101056102d6565b604051610112919061040d565b60405180910390f35b6101236102dc565b005b60025481565b60008054906101000a900473ffffffffffffffffffffffffffffffffffffffff1673ffffffffffffffffffffffffffffffffffffffff163373ffffffffffffffffffffffffffffffffffffffff161461018357600080fd5b600254421180156101975750600060025414155b6101a057600080fd5b3373ffffffffffffffffffffffffffffffffffffffff166108fc6001549081150290604051600060405180830381858888f193505050501580156101e8573d6000803e3d6000fd5b507f85470dff43902d75670eac38df826d0456b2ba2939a2e8662959a8143013554d6001544260405161021c929190610428565b60405180910390a160006001819055506000600281905550565b60008054906101000a900473ffffffffffffffffffffffffffffffffffffffff1673ffffffffffffffffffffffffffffffffffffffff163373ffffffffffffffffffffffffffffffffffffffff161461028e57600080fd5b60006002541461029d57600080fd5b80426102a99190610451565b60028190555050565b60008054906101000a900473ffffffffffffffffffffffffffffffffffffffff1681565b60015481565b60008054906101000a900473ffffffffffffffffffffffffffffffffffffffff1673ffffffffffffffffffffffffffffffffffffffff163373ffffffffffffffffffffffffffffffffffffffff161461033457600080fd5b600254421061034257600080fd5b34600160008282546103549190610451565b925050819055507f423a9cfbf206ef791a2b478cfcc3b10f6cd2c677dd20f7c432af5fb8cc4c1d3e344260405161038c929190610428565b60405180910390a1565b6000813590506103a581610512565b92915050565b6000602082840312156103bd57600080fd5b60006103cb84828501610396565b91505092915050565b6103dd816104a7565b82525050565b6103ec816104d9565b82525050565b600060208201905061040760008301846103d4565b92915050565b600060208201905061042260008301846103e3565b92915050565b600060408201905061043d60008301856103e3565b61044a60208301846103e3565b9392505050565b600061045c826104d9565b9150610467836104d9565b9250827fffffffffffffffffffffffffffffffffffffffffffffffffffffffffffffffff0382111561049c5761049b6104e3565b5b828201905092915050565b60006104b2826104b9565b9050919050565b600073ffffffffffffffffffffffffffffffffffffffff82169050919050565b6000819050919050565b7f4e487b7100000000000000000000000000000000000000000000000000000000600052601160045260246000fd5b61051b816104d9565b811461052657600080fd5b5056fea2646970667358221220394023f9f8417ca220e8107bf33dad9c8f6b82f3331ca2b5c06b6ee5844b661164736f6c63430008040033",
  "linkReferences": {},
  "deployedLinkReferences": {}
}